:07000300EF04FF1200D02200
:10000A0075B282E5B230E6FBE4F5B1F5B9F5A9229D
:10002600C2AFE4F5A8F5B8F5E6F5F6F5E7F5F7C2DB
:10003600AE53D9BF75803075F13075A41075E101E6
:1000460075E240D2AF12000A7F007E4B12023B30AF
:09005600AF0620AF0312010F22D6
:10005F001200267F681200D07F651200D07F6C12CD
:10006F0000D07F6C1200D07F6F1200D07F2C120057
:10007F00D07F201200D07F771200D07F6F1200D078
:10008F007F721200D07F6C1200D07F641200D07F7D
:10009F000D1200D07F0A1200D0750901E4F509C2D4
:1000AF00AF120151EFD39400400BD2AF750901127B
:1000BF00011E120003E50970E3D2AF43870180DC14
:0100CF00220E
:1000D000C2AC90002BE0FE900001E0C39E14541FC0
:1000E000D394005004D2AC80E7D2ACC2ACE5086037
:1000F00016EE541F240AF582E43400F583EFF090E5
:0F010000002BE004F080058F99750801D2AC2226
:0F010F00900001E0FF90002BE0C39F541FFF22E0
:10011E00C2AC900000E0FF90002AE0C39F5407D3CA
:10012E0094005004D2AC80E8D2ACC2ACEF54072499
:10013E0002F582E43400F583E0FF900000E004F065
:03014E00D2AC220E
:0F015100900000E0FF90002AE0C39F5407FF22B8
:100160008E0A8F0BE4FCFD7B18FAF9F81202827BF1
:10017000027A007900780012030DEF2480FFEE343C
:100180008DFEED345BFDE43CFCC004C005C006C040
:1001900007AE0AAF0BE4FCFD7B18FAF9F8120282F5
:1001A000A804A905AA06AB07D007D006D005D0043D
:0F01B00012030D12039F780CEFF6F58D8F8B2243
:030023000201BF18
:1001BF00C0E0C083C082C0D0C00730983090002A02
:1001CF00E0FF900000E0C39F145407D39400401940
:1001DF00EF54072402F582E43400F583E599F0C269
:1001EF009890002AE004F08004E599C29830993184
:1001FF00C299900001E0FF90002BE0C39F541FD3E2
:10020F009400401AEF541F240AF582E43400F5835A
:10021F00E0F599900001E004F07508018003E4F522
:0C022F0008D007D0D0D082D083D0E032BD
:10023B00C2ACAD8E5305F48D8EC2ABC28EAD89EDC3
:10024B00540F4420FDF589120160D28E759870E52C
:10025B0099E599E490002AF0900000F090002BF0C3
:0B026B00900001F0F508D2BCD2AC22DC
:0300000002027683
:0C027600787FE4F6D8FD75810C02005F73
:10028200E88FF0A4CC8BF0A42CFCE98EF0A42CFC1B
:100292008AF0EDA42CFCEA8EF0A4CDA8F08BF0A499
:1002A2002DCC3825F0FDE98FF0A42CCD35F0FCEBF8
:1002B2008EF0A4FEA9F0EB8FF0A4CFC5F02ECD39BD
:0F02C200FEE43CFCEAA42DCE35F0FDE43CFC222A
:1002D10075F008758200EF2FFFEE33FECD33CDCCE4
:1002E10033CCC58233C5829BED9AEC99E582984067
:1002F1000CF582EE9BFEED9AFDEC99FC0FD5F0D644
:10030100E4CEFBE4CDFAE4CCF9A88222B800C1B96D
:100311000059BA002DEC8BF084CFCECDFCE5F0CBAB
:10032100F97818EF2FFFEE33FEED33FDEC33FCEBE4
:1003310033FB10D703994004EB99FB0FD8E5E4F99F
:10034100FA227818EF2FFFEE33FEED33FDEC33FC8C
:10035100C933C910D7059BE99A4007EC9BFCE99A80
:10036100F90FD8E0E4C9FAE4CCFB2275F010EF2FC5
:10037100FFEE33FEED33FDCC33CCC833C810D707C5
:100381009BEC9AE899400AED9BFDEC9AFCE899F800
:0E0391000FD5F0DAE4CDFBE4CCFAE4C8F92293
:0E039F00C3E49FFFE49EFEE49DFDE49CFC226F
:00000001FF
