:1000030075B282E5B230E6FBE4F5B1F5B9F5A922A4
:1000130053D9BF75803075F13075A41075E1017542
:0D002300E2401200037F007E4B1200CF224E
:100030001200137F651200607F631200607F6812F8
:1000400000607F6F1200607F0D1200607F0A120057
:10005000601200688F08120060C2A3D2A380F2224F
:080060003099FDC2998F99222D
:080068003098FDC298AF992207
:100070008E098F0AE4FCFD7B18FAF9F81200FF7B69
:10008000027A007900780012018AEF2480FFEE34B2
:100090008DFEED345BFDE43CFCC004C005C006C031
:1000A00007AE09AF0AE4FCFD7B18FAF9F81200FF6D
:1000B000A804A905AA06AB07D007D006D005D0042E
:0F00C00012018A12021C780BEFF6F58D8F8B223E
:1000CF00C2ACAD8E5305F48D8EC2ABC28EAD89ED31
:1000DF00540F4420FDF589120070D28E759872E589
:0400EF0099E59922D4
:030000000200F308
:0C00F300787FE4F6D8FD75810B02003028
:1000FF00E88FF0A4CC8BF0A42CFCE98EF0A42CFCA0
:10010F008AF0EDA42CFCEA8EF0A4CDA8F08BF0A41D
:10011F002DCC3825F0FDE98FF0A42CCD35F0FCEB7C
:10012F008EF0A4FEA9F0EB8FF0A4CFC5F02ECD3941
:0F013F00FEE43CFCEAA42DCE35F0FDE43CFC22AE
:10014E0075F008758200EF2FFFEE33FECD33CDCC68
:10015E0033CCC58233C5829BED9AEC99E5829840EB
:10016E000CF582EE9BFEED9AFDEC99FC0FD5F0D6C8
:10017E00E4CEFBE4CDFAE4CCF9A88222B800C1B9F2
:10018E000059BA002DEC8BF084CFCECDFCE5F0CB30
:10019E00F97818EF2FFFEE33FEED33FDEC33FCEB69
:1001AE0033FB10D703994004EB99FB0FD8E5E4F924
:1001BE00FA227818EF2FFFEE33FEED33FDEC33FC11
:1001CE00C933C910D7059BE99A4007EC9BFCE99A05
:1001DE00F90FD8E0E4C9FAE4CCFB2275F010EF2F4A
:1001EE00FFEE33FEED33FDCC33CCC833C810D7074A
:1001FE009BEC9AE899400AED9BFDEC9AFCE899F885
:0E020E000FD5F0DAE4CDFBE4CCFAE4C8F92217
:0E021C00C3E49FFFE49EFEE49DFDE49CFC22F3
:00000001FF
