:1000030075B282E5B230E6FBE4F5B1F5B9F5A922A4
:10002600C2AFE4F5A8F5B8F5E6F5F6F5E7F5F7C2DB
:10003600AE53D9BF75803075F13075A41075E101E6
:1000460075E240D2AF1200037F007E4B1201EB2215
:100056001200267F6512009E7F6312009E7F681243
:10006600009E7F6F12009E7F2012009E7F6312000B
:100076009E7F2B12009E7F3112009E7F0D12009EE6
:100086007F0A12009E1200DD8F09E50904FF1200A7
:080096009EC2A3D2A380EE225A
:10009E00C2AC90002BE0FE900001E0C39E14541FF2
:1000AE00D394005004D2AC80E7D2ACC2ACE5086069
:1000BE0016EE541F240AF582E43400F583EFF09017
:0F00CE00002BE004F080058F99750801D2AC2259
:1000DD00C2AC900000E0FF90002AE0C39F5407D30C
:1000ED0094005004D2AC80E8D2ACC2ACEF540724DB
:1000FD0002F582E43400F583E0FF900000E004F0A7
:03010D00D2AC224F
:100110008E0A8F0BE4FCFD7B18FAF9F81202267B9D
:10012000027A00790078001202B1EF2480FFEE34E9
:100130008DFEED345BFDE43CFCC004C005C006C090
:1001400007AE0AAF0BE4FCFD7B18FAF9F8120226A1
:10015000A804A905AA06AB07D007D006D005D0048D
:0F0160001202B1120343780CEFF6F58D8F8B224C
:0300230002016F68
:10016F00C0E0C083C082C0D0C00730983090002A52
:10017F00E0FF900000E0C39F145407D39400401990
:10018F00EF54072402F582E43400F583E599F0C2B9
:10019F009890002AE004F08004E599C298309931D4
:1001AF00C299900001E0FF90002BE0C39F541FD332
:1001BF009400401AEF541F240AF582E43400F583AB
:1001CF00E0F599900001E004F07508018003E4F573
:0C01DF0008D007D0D0D082D083D0E0320E
:1001EB00C2ACAD8E5305F48D8EC2ABC28EAD89ED14
:1001FB00540F4420FDF589120110D28E759870E5CD
:10020B0099E599E490002AF0900000F090002BF013
:0B021B00900001F0F508D2BCD2AC222C
:03000000020013E8
:0C001300787FE4F6D8FD75810C020056E1
:10022600E88FF0A4CC8BF0A42CFCE98EF0A42CFC77
:100236008AF0EDA42CFCEA8EF0A4CDA8F08BF0A4F5
:100246002DCC3825F0FDE98FF0A42CCD35F0FCEB54
:100256008EF0A4FEA9F0EB8FF0A4CFC5F02ECD3919
:0F026600FEE43CFCEAA42DCE35F0FDE43CFC2286
:1002750075F008758200EF2FFFEE33FECD33CDCC40
:1002850033CCC58233C5829BED9AEC99E5829840C3
:100295000CF582EE9BFEED9AFDEC99FC0FD5F0D6A0
:1002A500E4CEFBE4CDFAE4CCF9A88222B800C1B9CA
:1002B5000059BA002DEC8BF084CFCECDFCE5F0CB08
:1002C500F97818EF2FFFEE33FEED33FDEC33FCEB41
:1002D50033FB10D703994004EB99FB0FD8E5E4F9FC
:1002E500FA227818EF2FFFEE33FEED33FDEC33FCE9
:1002F500C933C910D7059BE99A4007EC9BFCE99ADD
:10030500F90FD8E0E4C9FAE4CCFB2275F010EF2F21
:10031500FFEE33FEED33FDCC33CCC833C810D70721
:100325009BEC9AE899400AED9BFDEC9AFCE899F85C
:0E0335000FD5F0DAE4CDFBE4CCFAE4C8F922EF
:0E034300C3E49FFFE49EFEE49DFDE49CFC22CB
:00000001FF
